:020000040000FA
:020000000528D1
:08000800090085018601831641
:1000100007308500003086008030810000308B0082
:10002000831207309F000518192816280614272068
:100030001D2806100611A6101D2885182328202823
:1000400086143520132886100611A6101328051CC7
:100050004320851C4320851C4A20A00B2728A10B88
:100060002728A20B272800000800051C4320851C18
:100070004320051C4A20A00B3528A10B3528A20BD4
:100080003528000008005D30A0002630A1000B30AC
:10009000A2000800A61C5720A614051D080006157E
:1000A0006E30A0005E30A1001A30A2000800861554
:1000B000AD30A3001330A4000630A500A30B5E28CA
:0E00C000A40B5E28A50B5E2800008611080028
:02400E00613F10
:00000001FF
